:020000040000FA
:100000000C9462000C948A000C948A000C948A0070
:100010000C948A000C948A000C948A000C948A0038
:100020000C948A000C948A000C948A000C948A0028
:100030000C948A000C948A000C948A000C948A0018
:100040000C94D2020C948A000C9442030C941C036E
:100050000C948A000C948A000C948A000C948A00F8
:100060000C948A000C948A000000000024002700F1
:100070002A0000000000250028002B0000000000DE
:1000800023002600290004040404040404040202DA
:100090000202020203030303030301020408102007
:1000A0004080010204081020010204081020000012
:1000B0000008000201000003040700000000000027
:1000C0000000740311241FBECFEFD8E0DEBFCDBF08
:1000D00011E0A0E0B1E0E4E3FBE002C005900D9286
:1000E000A833B107D9F721E0A8E3B1E001C01D9220
:1000F000A43FB207E1F710E0C2E6D0E004C02197C8
:10010000FE010E949205C136D107C9F70E94D803AB
:100110000C9498050C940000833081F028F4813011
:1001200099F08230A9F008958730A9F08830C9F09D
:100130008430B1F4809180008F7D03C08091800075
:100140008F7780938000089584B58F7784BD08955C
:1001500084B58F7DFBCF8091B0008F778093B00006
:1001600008958091B0008F7DF9CFCF93DF93282F32
:1001700030E0F901E255FF4F8491F901E656FF4F57
:10018000D491F901EA57FF4FC491CC23A1F081111A
:100190000E948C00EC2FF0E0EE0FFF1FE458FF4FA1
:1001A000A591B491EC91ED2381E090E009F480E019
:1001B000DF91CF91089580E090E0FACF1F93CF9325
:1001C000DF93282F30E0F901E255FF4F8491F901C8
:1001D000E656FF4FD491F901EA57FF4FC491CC2363
:1001E000A9F0162F81110E948C00EC2FF0E0EE0F89
:1001F000FF1FEE58FF4FA591B4918FB7F894EC9183
:10020000111108C0D095DE23DC938FBFDF91CF9111
:100210001F910895DE2BF8CFCF93DF9390E0FC0180
:10022000E656FF4F24918A579F4FFC018491882303
:10023000D1F090E0880F991FFC01E859FF4FA5917C
:10024000B491FC01EE58FF4FC591D491623071F426
:100250009FB7F8943C91822F809583238C93E881FB
:100260002E2B28839FBFDF91CF9108958FB7F894ED
:10027000EC912E2B2C938FBFF6CF2FB7F894609173
:1002800043017091440180914501909146012FBF37
:100290000895AF92BF92CF92DF92EF92FF920F93A9
:1002A0001F93CF93DF936C017B018B01040F151F0C
:1002B000EB015E01AE18BF08C017D10759F0699174
:1002C000D601ED91FC910190F081E02DC6010995D8
:1002D000892B79F7C501DF91CF911F910F91FF9085
:1002E000EF90DF90CF90BF90AF900895FC01538DB9
:1002F000448D252F30E0842F90E0821B930B541700
:1003000010F0CF96089501970895FC01918D828D8C
:10031000981761F0A28DAE0FBF2FB11D5D968C9125
:10032000928D9F5F9F73928F90E008958FEF9FEF64
:100330000895FC01918D828D981731F0828DE80F20
:10034000F11D858D90E008958FEF9FEF0895FC01DA
:10035000918D228D892F90E0805C9F4F821B9109A7
:100360008F739927089587E491E00E94A70121E007
:10037000892B09F420E0822F089580E090E0892BFA
:1003800029F00E94B30181110C9400000895FC0132
:10039000A48DA80FB92FB11DA35ABF4F2C91848DE6
:1003A00090E001968F739927848FA689B7892C9343
:1003B000A089B1898C91837080648C93938D848D96
:1003C000981306C00288F389E02D80818F7D808399
:1003D0000895EF92FF920F931F93CF93DF93EC0159
:1003E00081E0888F9B8D8C8D98131AC0E889F989DC
:1003F000808185FF15C09FB7F894EE89FF896083DF
:10040000E889F98980818370806480839FBF81E05F
:1004100090E0DF91CF911F910F91FF90EF900895A1
:10042000F62E0B8D10E00F5F1F4F0F731127E02E7C
:100430008C8D8E110CC00FB607FCFACFE889F989B4
:10044000808185FFF5CFCE010E94C701F1CFEB8DF2
:10045000EC0FFD2FF11DE35AFF4FF0829FB7F89488
:100460000B8FEA89FB8980818062CFCFCF93DF93A6
:10047000EC01888D8823B9F0AA89BB89E889F989BC
:100480008C9185FD03C0808186FD0DC00FB607FCF1
:10049000F7CF8C9185FFF2CF808185FFEDCFCE0124
:1004A0000E94C701E9CFDF91CF910895CF93DF93E9
:1004B000FC0101900020E9F73197AF01481B590B6F
:1004C000BC0187E491E00E944901EC0142E050E068
:1004D0006AE171E087E491E00E9449018C0F9D1F61
:1004E000DF91CF910895CF93DF93EC0188819981BB
:1004F0008130910519F12CF4892B91F0DF91CF9186
:1005000008958230910501F10397C1F78FE291E0E0
:100510000E94560261E08C810E94DE0060E021C0F2
:100520008DE191E00E94560261E08E810E94DE0022
:1005300060E08C81DF91CF910C94DE0081E291E04C
:100540000E94560261E0F5CF89E291E00E945602D6
:1005500060E08E810E94DE0060E08C810E94DE00FF
:1005600061E08A81E7CF90933D0180933C017093D5
:10057000ED016093EC015093E5014093E4018CEEB2
:1005800091E00E94730284EE91E00E9473020E9447
:100590003D01609338017093390180933A01909343
:1005A0003B0108951F920F920FB60F9211242F93C3
:1005B0003F938F939F93AF93BF938091430190910B
:1005C0004401A0914501B09146013091420123E0E0
:1005D000230F2D3758F50196A11DB11D209342011F
:1005E0008093430190934401A0934501B093460149
:1005F00080913E0190913F01A0914001B091410155
:100600000196A11DB11D80933E0190933F01A093DF
:100610004001B0934101BF91AF919F918F913F9164
:100620002F910F900FBE0F901F90189526E8230F63
:100630000296A11DB11DD2CF1F920F920FB60F923D
:1006400011242F933F934F935F936F937F938F93D7
:100650009F93AF93BF93EF93FF9387E491E00E9442
:10066000C701FF91EF91BF91AF919F918F917F91C2
:100670006F915F914F913F912F910F900FBE0F900F
:100680001F9018951F920F920FB60F9211242F935F
:100690008F939F93EF93FF93E0915701F09158014F
:1006A0008081E0915D01F0915E0182FD1BC090812F
:1006B000809160018F5F8F7320916101821741F0FB
:1006C000E0916001F0E0E95BFE4F958F809360015F
:1006D000FF91EF919F918F912F910F900FBE0F90EF
:1006E0001F9018958081F4CFCF93DF93E7E4F1E07A
:1006F0001382128288EE93E0A0E0B0E084839583B9
:10070000A683B7838CE091E09183808385EC90E0B1
:100710009587848784EC90E09787868780EC90E0CB
:10072000918B808B81EC90E0938B828B82EC90E0BC
:10073000958B848B86EC90E0978B868B118E128E36
:10074000138E148ECCEED1E08AE090E09B838A83F6
:1007500089E090E09D838C8388E090E09F838E8386
:1007600061E08AE00E940C0161E08C810E940C0132
:1007700061E08E810E940C01C4EED1E086E090E041
:100780009B838A8385E090E09D838C8384E090E066
:100790009F838E8361E086E00E940C0161E08C8182
:1007A0000E940C0161E08E81DF91CF910C940C01CD
:1007B000789484B5826084BD84B5816084BD85B53C
:1007C000826085BD85B5816085BD80916E00816048
:1007D00080936E00109281008091810082608093EE
:1007E00081008091810081608093810080918000F0
:1007F0008160809380008091B10084608093B1001B
:100800008091B00081608093B00080917A00846014
:1008100080937A0080917A00826080937A00809140
:100820007A00816080937A0080917A00806880935A
:100830007A001092C100E0915701F091580182E0D6
:100840008083E0915301F09154011082E0915501B1
:10085000F09156018FEC808310925F01E0915B0173
:10086000F0915C0186E08083E0915901F0915A019A
:10087000808180618083E0915901F0915A018081EB
:1008800088608083E0915901F0915A0180818068ED
:100890008083E0915901F0915A0180818F7D80839E
:1008A0000E943D01609338017093390180933A01B1
:1008B00090933B0143E050E061E070E081E090E024
:1008C0000E94B30262E0809106010E940C0162E086
:1008D000809104010E940C0106E011E084E0E82E02
:1008E00081E0F82E95E0992E20E0C22E20E0D22E55
:1008F000C8EED3E0802F0E94B5005C018E2D0E94CF
:10090000B50020913C0130913D012130310509F4C1
:1009100090C06CF4232B09F44CC0C114D10451F3E2
:100920000E94B301882331F30E940000E3CF2230FC
:10093000310509F4B9C02330310579F72091000160
:1009400030910101283E43E0340721F4892B11F452
:1009500020ED37E0309301012093000180910201E6
:1009600090910301883E23E0920721F4AB2811F413
:1009700080ED97E090930301809302010E943D0176
:10098000409038015090390160903A0170903B01DD
:100990006419750986099709693E734081059105B7
:1009A00008F4BBCF42E050E070E060E090E080E00F
:1009B0003DC08091020190910301883E23E092079F
:1009C00021F4AB2811F480ED97E09093030180931C
:1009D00002010E943D014090380150903901609021
:1009E0003A0170903B01AB01BC01441955096609FD
:1009F00077092091000130910101929EC001939EE0
:100A0000900D1124092E000CAA0BBB0B841795071F
:100A1000A607B70708F081CFD0930101C09300016A
:100A200043E050E061E070E081E090E00E94B302BA
:100A300074CF2091000130910101283E43E034073A
:100A400021F4892B11F420ED37E03093010120933C
:100A500000018091020190910301883E23E09207FA
:100A600021F4AB2811F480ED97E09093030180937B
:100A700002010E943D014090380150903901609080
:100A80003A0170903B016419750986099709693E1E
:100A900073408105910508F440CF50E040E062E0EA
:100AA00070E082E090E0C2CF20910001309101011E
:100AB000283E43E0340721F4892B11F420ED37E080
:100AC00030930101209300010E943D0140903801C4
:100AD0005090390160903A0170903B01AB01BC012C
:100AE00044195509660977092091020130910301E3
:100AF000929EC001939E900D1124092E000CAA0B0A
:100B0000BB0B84179507A607B70708F006CFD0934D
:100B10000301C093020141E050E063E070E083E034
:100B200090E084CFEE0FFF1F0590F491E02D099423
:100B3000F894FFCFE803E803030002000000000080
:100B4000E901490176013602A701850199010D0AE3
:100B5000007265640059656C6C6F7731004772658F
:0C0B6000656E0059656C6C6F7732000008
:107E0000112484B714BE81FFF0D085E080938100F7
:107E100082E08093C00088E18093C10086E0809377
:107E2000C20080E18093C4008EE0C9D0259A86E02C
:107E300020E33CEF91E0309385002093840096BBD3
:107E4000B09BFECF1D9AA8958150A9F7CC24DD24C4
:107E500088248394B5E0AB2EA1E19A2EF3E0BF2EE7
:107E6000A2D0813461F49FD0082FAFD0023811F036
:107E7000013811F484E001C083E08DD089C08234E0
:107E800011F484E103C0853419F485E0A6D080C0E4
:107E9000853579F488D0E82EFF2485D0082F10E0AE
:107EA000102F00270E291F29000F111F8ED06801E7
:107EB0006FC0863521F484E090D080E0DECF843638
:107EC00009F040C070D06FD0082F6DD080E0C81688
:107ED00080E7D80618F4F601B7BEE895C0E0D1E017
:107EE00062D089930C17E1F7F0E0CF16F0E7DF06D8
:107EF00018F0F601B7BEE89568D007B600FCFDCFD4
:107F0000A601A0E0B1E02C9130E011968C91119780
:107F100090E0982F8827822B932B1296FA010C0160
:107F200087BEE89511244E5F5F4FF1E0A038BF0790
:107F300051F7F601A7BEE89507B600FCFDCF97BE46
:107F4000E89526C08437B1F42ED02DD0F82E2BD052
:107F50003CD0F601EF2C8F010F5F1F4F84911BD097
:107F6000EA94F801C1F70894C11CD11CFA94CF0C13
:107F7000D11C0EC0853739F428D08EE10CD085E9AC
:107F80000AD08FE07ACF813511F488E018D01DD067
:107F900080E101D065CF982F8091C00085FFFCCF94
:107FA0009093C60008958091C00087FFFCCF809118
:107FB000C00084FD01C0A8958091C6000895E0E648
:107FC000F0E098E1908380830895EDDF803219F02E
:107FD00088E0F5DFFFCF84E1DECF1F93182FE3DFCA
:107FE0001150E9F7F2DF1F91089580E0E8DFEE27F6
:047FF000FF270994CA
:027FFE00040479
:00000001FF
